:1000000030C0000049C0000047C0000045C00000EB
:1000100043C0000041C000003FC000003DC00000E0
:100020003BC0000039C0000037C000003AC40000E7
:1000300033C0000031C000002FC000002DC0000000
:100040002BC0000029C0000027C0000025C0000010
:1000500023C000009C03A703B203BD03C803D3035E
:10006000DE0311241FBECFE5D8E0DEBFCDBF10E018
:10007000A0E6B0E0ECEFF8E002C005900D92A236E9
:10008000B107D9F720E0A2E6B0E001C01D92AE3B77
:10009000B207E1F7C7D130C4B3CFFC01892B09F413
:1000A00051C080818130C1F028F0823039F1833035
:1000B000B9F14AC082818F3F31F49AB38181892B93
:1000C0008ABB81E00895811141C09AB381818095F6
:1000D00089238ABB81E0089582818F3F31F497B3F1
:1000E0008181892B87BB81E00895811131C097B34D
:1000F00081818095892387BB81E0089582818F3F2C
:1001000031F494B38181892B84BB81E008958111FE
:1001100021C094B381818095892384BB81E00895B7
:1001200082818F3F31F491B38181892B81BB81E042
:100130000895811111C091B381818095892381BB7C
:1001400081E0089580E0089580E0089580E00895BA
:1001500080E0089580E0089580E00895813059F0AE
:1001600028F0823069F0833081F014C08BB36827A7
:100170006BBB81E0089588B3682768BB81E0089570
:1001800085B3682765BB81E0089582B3682762BBA9
:1001900081E0089580E00895CF93DF9300D000D0F0
:1001A000CDB7DEB719821A821B821C82FC018181C5
:1001B000813069F018F08230A1F01EC081E08B839D
:1001C00084E08C83CE01019647D181E016C081E0A6
:1001D00089838B8384E08C83CE0101963DD181E0BD
:1001E0000CC082E0898381E08B8384E08C83CE0124
:1001F000019632D181E001C080E00F900F900F9006
:100200000F90DF91CF9108952091A80037E0239FB0
:10021000F0011124EE59FF4F92838183748363832D
:10022000408316821582211104C066E070E080E0F0
:100230007DD18091A8008F5F8093A80081E0089510
:10024000AF92BF92CF92DF92EF92FF920F931F93E4
:10025000CF93DF936091A800EBE5F0E041EA50E036
:100260000F2EF2E6CF2EF0E0DF2EF02D0F2EF4EA67
:10027000EF2EF0E0FF2EF02D06EA10E00F2EF2EA4E
:10028000AF2EF0E0BF2EF02D2285338528173907D9
:1002900009F03FC0613011F06A30E9F4262F30E0F8
:1002A00021503109D901AA0FBB1FAA0FBB1FAA0FEA
:1002B000BB1FA21BB30BAE59BF4F14961C921E92CC
:1002C000139716961C921E92159712961C921E92C8
:1002D00011971C921DC0E701288139813483238343
:1002E000E8012881398136832583E5012881398118
:1002F00032832183E6012FAD2083D7011D921C920A
:10030000E80119821882D5011D921C92E6011FAEE8
:1003100061503796E417F50709F0B6CF6093A8004F
:10032000611102C080E069D281E0DF91CF911F911D
:100330000F91FF90EF90DF90CF90BF90AF90089516
:10034000CF92DF92EF92FF920F931F93CF93DF93A1
:100350001F92CDB7DEB786E089838091B20090917D
:10036000B300A091B400B091B500892B8A2B8B2BE0
:1003700009F449C01092B2001092B3001092B40078
:100380001092B500BE016F5F7F4F80E071D2E5E64D
:10039000F0E02BEA30E080819181892B29F0828185
:1003A00093810196938382833796E217F30799F737
:1003B00002E610E00F2EF8EACF2EF0E0DF2EF02D4F
:1003C000D8011396ED91FC9114973097B9F01596DA
:1003D0002D913C91169711968D919C91129728170B
:1003E000390760F016961C921E9215970995F80130
:1003F0008081811103C08381948122DF095F1F4FB7
:100400000C151D05E9F681E00F90DF91CF911F914A
:100410000F91FF90EF90DF90CF90089561E080E022
:100420009DCE0895CF93DF9300D01F92CDB7DEB756
:10043000198281E08A838FEF8B83CE0101962DDEB6
:1004400080E690E0A9DE789441E06EE072E088EE0C
:1004500093E0DADE75DFFECFFC01892B09F464C07E
:100460003081832F90E0DC01A455BF4F23812C9372
:100470002181213009F446C020F0223009F448C01F
:100480004CC0313091F018F0323031F135C083B7C3
:10049000887F83BF8281813021F489B7816089BFE1
:1004A0002BC089B78E7F89BF27C08FB58D7F8FBD49
:1004B0008FB58E7F8FBD8EB5877F8EBD8EB58F7EBB
:1004C0008EBD8281811104C089B78E7F89BF14C01F
:1004D00089B7816089BF10C085B5877F85BD85B527
:1004E0008F7B85BD8281811104C089B78E7F89BFD2
:1004F00003C089B7816089BFA081B0E0A155BF4F1B
:100500001C920BC0DC01A155BF4F21E02C9305C00C
:10051000DC01A155BF4F22E02C93E081F0E0E755CC
:10052000FF4F81E08083089580E00895813009F4D1
:1005300077C020F0823009F4E2C04BC18091A9005D
:10054000813009F048C162BF8091AF00813009F469
:1005500051C020F0823009F458C03FC18091AC00F6
:10056000843009F128F4813041F0823089F037C1BC
:10057000863021F1873069F132C183B78B7F83BF29
:1005800083B78D7F83BF83B7816083BF81E0089588
:1005900083B78B7F83BF83B78E7F83BF83B7826030
:1005A00083BF81E0089583B78B7F83BF83B7826069
:1005B00083BF83B7816083BF81E0089583B78E7F57
:1005C00083BF83B78D7F83BF83B7846083BF81E0A0
:1005D000089583B7816083BF83B78D7F83BF83B75F
:1005E000846083BF83B78E7F83BF83B7826083BFFE
:1005F00081E0089583B7846083BF83B7826083BF3F
:1006000083B7816083BF81E0089583B7846083BF2F
:1006100083B78E7F83BF83B7816083BF81E00895F6
:100620008091AA00813009F0DCC0609570957DBD95
:100630006CBD8091B000813009F44BC020F0823055
:1006400009F452C0D0C08091AD00843009F128F483
:10065000813041F0823089F0C8C0863021F1873086
:1006600069F1C3C08EB58B7F8EBD8EB58D7F8EBD7B
:100670008EB581608EBD81E008958EB58B7F8EBD75
:100680008EB58E7F8EBD8EB582608EBD81E0089561
:100690008EB58B7F8EBD8EB581608EBD8EB582602E
:1006A0008EBD81E008958EB58D7F8EBD8EB58E7F17
:1006B0008EBD8EB584608EBD81E008958EB58D7F30
:1006C0008EBD8EB581608EBD8EB584608EBD81E09D
:1006D00008958EB582608EBD8EB581608EBD8EB55B
:1006E00084608EBD81E008958EB582608EBD8EB52A
:1006F00084608EBD8EB58E7F8EBD81E00895809121
:10070000AB00813009F073C0609564BD8091B10089
:10071000882329F0833008F46CC080E00895E091CC
:10072000AE008E2F90E0FC013197E730F10508F024
:1007300062C0E65DFF4FDAC085B5846085BD85B5D2
:10074000826085BD85B5816085BD81E0089585B5F0
:100750008E7F85BD85B58B7F85BD85B5826085BD66
:1007600081E0089585B58B7F85BD85B5816085BDA8
:1007700085B5826085BD81E0089585B5846085BDBD
:1007800085B58E7F85BD85B58D7F85BD81E008955A
:1007900085B5846085BD85B5816085BD85B58D7F56
:1007A00085BD81E0089585B5846085BD85B582608D
:1007B00085BD85B58E7F85BD81E0089585B5846052
:1007C00085BD85B5826085BD85B5816085BD81E0CB
:1007D000089580E0089580E0089580E0089580E025
:1007E000089580E0089580E0089580E0089580E015
:1007F000089581E0089580E00895813099F018F01F
:100800008230F9F02DC08091A900813059F583B76D
:10081000846083BF83B7826083BF83B7816083BFF7
:1008200081E008958091AA008130F1F483B78B7F35
:1008300083BF83B78D7F83BF83B78E7F83BF81E004
:1008400008958091AB00813089F485B58E7F85BD98
:1008500085B58B7F85BD85B58D7F85BD81E008958C
:1008600080E0089580E0089580E0089580E0089594
:10087000813049F018F0823069F011C0FB018081AD
:1008800082BF81E00895FB01808190E09DBD8CBD19
:1008900081E00895FB01808184BD81E0089580E0BE
:1008A00008951F920F920FB60F9211248F939F936A
:1008B000AF93BF938091B2009091B300A091B40028
:1008C000B091B5000196A11DB11D8093B200909327
:1008D000B300A093B400B093B500BF91AF919F91C6
:1008E0008F910F900FBE0F901F901895EE0FFF1F66
:0C08F0000590F491E02D0994F894FFCFDE
:0208FC000100F9
:00000001FF
