:1000000030C0000049C0000047C0000045C00000EB
:1000100043C0000041C000003FC000003DC00000E0
:100020003BC0000039C0000037C0000091C4000090
:1000300033C0000031C000002FC000002DC0000000
:100040002BC0000029C0000027C0000025C0000010
:1000500023C00000F303FE03090414041F042A0450
:10006000350411241FBECFE5D8E0DEBFCDBF10E0C0
:10007000A0E6B0E0EAEAF9E002C005900D92A236EF
:10008000B107D9F720E0A2E6B0E001C01D92AE387A
:10009000B207E1F708D287C4B3CFFC01892B09F47A
:1000A00051C080818130C1F028F0823039F1833035
:1000B000B9F14AC082818F3F31F49AB38181892B93
:1000C0008ABB81E00895811141C09AB381818095F6
:1000D00089238ABB81E0089582818F3F31F497B3F1
:1000E0008181892B87BB81E00895811131C097B34D
:1000F00081818095892387BB81E0089582818F3F2C
:1001000031F494B38181892B84BB81E008958111FE
:1001100021C094B381818095892384BB81E00895B7
:1001200082818F3F31F491B38181892B81BB81E042
:100130000895811111C091B381818095892381BB7C
:1001400081E0089580E0089580E0089580E00895BA
:1001500080E0089580E0089580E008958130A9F05E
:1001600028F0823009F1833071F13CC04F3F29F40F
:100170008BB3682B6BBB81E00895411135C08BB305
:10018000609568236BBB81E008954F3F29F488B3E5
:10019000682B68BB81E00895411128C088B3609541
:1001A000682368BB81E008954F3F29F485B3682B2D
:1001B00065BB81E0089541111BC085B3609568233C
:1001C00065BB81E008954F3F29F482B3682B62BB81
:1001D00081E0089541110EC082B36095682362BB2F
:1001E00081E0089580E0089580E0089580E008951A
:1001F00080E0089580E00895813059F028F0823041
:1002000069F0833081F014C08BB368276BBB81E049
:10021000089588B3682768BB81E0089585B368278F
:1002200065BB81E0089582B3682762BB81E00895D1
:1002300080E00895CF93DF9300D000D0CDB7DEB734
:10024000009799F120917700213089F1FC0121E09C
:100250002093770019821A821B821C82818181304F
:1002600069F018F08230A1F01EC081E08B8384E039
:100270008C83CE01019647D181E01AC081E0898349
:100280008B8384E08C83CE0101963DD181E010C048
:1002900082E0898381E08B8384E08C83CE010196A8
:1002A00032D181E005C080E003C086EF01C087EF56
:1002B0000F900F900F900F90DF91CF9108959C01B8
:1002C00090917700992319F190917800933008F577
:1002D000423008F56115710501F187E0989FF00142
:1002E0001124EE59FF4F328321837483638340834B
:1002F00016821582911104C066E070E080E06DD135
:10030000809178008F5F8093780081E0089588EF76
:10031000089580E008958AEF08958BEF08951F9364
:10032000CF93DF93BC01409178004423D1F1E2E602
:10033000F0E010E090E081E0EF01238134812617A6
:10034000370709F5923041F4148213821682158220
:1003500012821182108215C029893A89348323833D
:100360002B893C89368325832F85388932832183E5
:100370002E8520831A8A198A1C8A1B8A188A1F864E
:100380001E864150182F9F5F37969330B1F64093E9
:100390007800411102C080E087D2111104C08CEFB7
:1003A00003C089EF01C081E0DF91CF911F910895D3
:1003B000CF92DF92EF92FF920F931F93CF93DF9331
:1003C0001F92CDB7DEB786E089838091820090913D
:1003D0008300A0918400B0918500892B8A2B8B2B00
:1003E00009F446C01092820010928300109284009B
:1003F00010928500BE016F5F7F4F80E090D202E6D1
:1004000010E00F2EF7E7EF2EF0E0FF2EF02DF801B1
:1004100083819481892B29F0858196810196968329
:1004200085833796EE15FF0599F7D8011396ED9160
:10043000FC9114973097B9F015962D913C91169731
:1004400011968D919C9112972817390760F0169696
:100450001C921E9215970995F8018081811103C0A5
:10046000838194815CDF095F1F4F0E151F05E9F63C
:1004700081E00F90DF91CF911F910F91FF90EF904E
:10048000DF90CF90089561E080E0B6CE089562E0FD
:1004900080E0B2CE089564E080E0AECE089568E0DA
:1004A00080E0AACE0895CF93DF9300D01F92CDB7FE
:1004B000DEB7789419828FEF8A838B83CE01019601
:1004C000ECDD80E690E0B6DE40E063E472E088EECA
:1004D00093E0F5DE41E067E472E084EF91E0EFDE67
:1004E00041E06BE472E08CE291E0E9DE8BE492E0C3
:1004F00016DF8FE492E013DF811103C04FEF60E855
:100500002DDE56DFFECFFC01892B09F464C030815B
:10051000832F90E0DC01A458BF4F23812C932181CD
:10052000213009F446C020F0223009F448C04CC004
:10053000313091F018F0323031F135C083B7887F17
:1005400083BF8281813021F489B7816089BF2BC04C
:1005500089B78E7F89BF27C08FB58D7F8FBD8FB53F
:100560008E7F8FBD8EB5877F8EBD8EB58F7E8EBD03
:100570008281811104C089B78E7F89BF14C089B779
:10058000816089BF10C085B5877F85BD85B58F7BAC
:1005900085BD8281811104C089B78E7F89BF03C068
:1005A00089B7816089BFA081B0E0A158BF4F1C927C
:1005B0000BC0DC01A158BF4F21E02C9305C0DC012A
:1005C000A158BF4F22E02C93E081F0E0E758FF4FA5
:1005D00081E08083089580E00895813009F477C038
:1005E00020F0823009F4E2C04BC180917900813063
:1005F00009F048C162BF80917F00813009F451C089
:1006000020F0823009F458C03FC180917C008430D2
:1006100009F128F4813041F0823089F037C1863009
:1006200021F1873069F132C183B78B7F83BF83B7F4
:100630008D7F83BF83B7816083BF81E0089583B7D7
:100640008B7F83BF83B78E7F83BF83B7826083BF77
:1006500081E0089583B78B7F83BF83B7826083BFB8
:1006600083B7816083BF81E0089583B78E7F83BFA6
:1006700083B78D7F83BF83B7846083BF81E0089594
:1006800083B7816083BF83B78D7F83BF83B7846067
:1006900083BF83B78E7F83BF83B7826083BF81E0D0
:1006A000089583B7846083BF83B7826083BF83B7B5
:1006B000816083BF81E0089583B7846083BF83B77F
:1006C0008E7F83BF83B7816083BF81E0089580916F
:1006D0007A00813009F0DCC0609570957DBD6CBDFD
:1006E00080918000813009F44BC020F0823009F401
:1006F00052C0D0C080917D00843009F128F481304F
:1007000041F0823089F0C8C0863021F1873069F12C
:10071000C3C08EB58B7F8EBD8EB58D7F8EBD8EB5E1
:1007200081608EBD81E008958EB58B7F8EBD8EB5C4
:100730008E7F8EBD8EB582608EBD81E008958EB5B0
:100740008B7F8EBD8EB581608EBD8EB582608EBD75
:1007500081E008958EB58D7F8EBD8EB58E7F8EBD66
:100760008EB584608EBD81E008958EB58D7F8EBD7F
:100770008EB581608EBD8EB584608EBD81E008959A
:100780008EB582608EBD8EB581608EBD8EB5846063
:100790008EBD81E008958EB582608EBD8EB5846079
:1007A0008EBD8EB58E7F8EBD81E0089580917B00D9
:1007B000813009F073C0609564BD80918100882309
:1007C00029F0833008F46CC080E00895E0917E0049
:1007D0008E2F90E0FC013197E730F10508F062C000
:1007E000E65DFF4FDAC085B5846085BD85B5826062
:1007F00085BD85B5816085BD81E0089585B58E7F15
:1008000085BD85B58B7F85BD85B5826085BD81E061
:10081000089585B58B7F85BD85B5816085BD85B51E
:10082000826085BD81E0089585B5846085BD85B50C
:100830008E7F85BD85B58D7F85BD81E0089585B5A9
:10084000846085BD85B5816085BD85B58D7F85BD9D
:1008500081E0089585B5846085BD85B5826085BDDC
:1008600085B58E7F85BD81E0089585B5846085BDA1
:1008700085B5826085BD85B5816085BD81E00895BF
:1008800080E0089580E0089580E0089580E0089574
:1008900080E0089580E0089580E0089580E0089564
:1008A00081E0089580E00895813099F018F0823059
:1008B000F9F02DC080917900813059F583B78460BB
:1008C00083BF83B7826083BF83B7816083BF81E0CA
:1008D000089580917A008130F1F483B78B7F83BFD4
:1008E00083B78D7F83BF83B78E7F83BF81E00895F9
:1008F00080917B00813089F485B58E7F85BD85B57B
:100900008B7F85BD85B58D7F85BD81E0089580E0B5
:10091000089580E0089580E0089580E00895813092
:1009200049F018F0823069F011C0FB01808182BF6C
:1009300081E00895FB01808190E09DBD8CBD81E048
:100940000895FB01808184BD81E0089580E00895D1
:100950001F920F920FB60F9211248F939F93AF9314
:10096000BF938091820090918300A0918400B09108
:1009700085000196A11DB11D809382009093830094
:10098000A0938400B0938500BF91AF919F918F9108
:100990000F900FBE0F901F901895EE0FFF1F059040
:0A09A000F491E02D0994F894FFCFC4
:0209AA0001004A
:00000001FF
