:1000000030C0000049C0000047C0000045C00000EB
:1000100043C0000041C000003FC000003DC00000E0
:100020003BC0000039C0000037C000006FC40000B2
:1000300033C0000031C000002FC000002DC0000000
:100040002BC0000029C0000027C0000025C0000010
:1000500023C00000D103DC03E703F203FD0308041F
:10006000130411241FBECFE5D8E0DEBFCDBF10E0E2
:10007000A0E6B0E0E6E6F9E002C005900D92A236F7
:10008000B107D9F720E0A2E6B0E001C01D92AD387B
:10009000B207E1F7E6D165C4B3CFFC01892B09F4BF
:1000A00051C080818130C1F028F0823039F1833035
:1000B000B9F14AC082818F3F31F49AB38181892B93
:1000C0008ABB81E00895811141C09AB381818095F6
:1000D00089238ABB81E0089582818F3F31F497B3F1
:1000E0008181892B87BB81E00895811131C097B34D
:1000F00081818095892387BB81E0089582818F3F2C
:1001000031F494B38181892B84BB81E008958111FE
:1001100021C094B381818095892384BB81E00895B7
:1001200082818F3F31F491B38181892B81BB81E042
:100130000895811111C091B381818095892381BB7C
:1001400081E0089580E0089580E0089580E00895BA
:1001500080E0089580E0089580E008958130A9F05E
:1001600028F0823009F1833071F13CC04F3F29F40F
:100170008BB3682B6BBB81E00895411135C08BB305
:10018000609568236BBB81E008954F3F29F488B3E5
:10019000682B68BB81E00895411128C088B3609541
:1001A000682368BB81E008954F3F29F485B3682B2D
:1001B00065BB81E0089541111BC085B3609568233C
:1001C00065BB81E008954F3F29F482B3682B62BB81
:1001D00081E0089541110EC082B36095682362BB2F
:1001E00081E0089580E0089580E0089580E008951A
:1001F00080E0089580E00895813059F028F0823041
:1002000069F0833081F014C08BB368276BBB81E049
:10021000089588B3682768BB81E0089585B368278F
:1002200065BB81E0089582B3682762BB81E00895D1
:1002300080E00895CF93DF9300D000D0CDB7DEB734
:1002400019821A821B821C82FC018181813069F033
:1002500018F08230A1F01EC081E08B8384E08C8393
:10026000CE0101962ED181E016C081E089838B8377
:1002700084E08C83CE01019624D181E00CC082E021
:10028000898381E08B8384E08C83CE01019619D130
:1002900081E001C080E00F900F900F900F90DF91F0
:1002A000CF9108959C01909177009330D0F487E02E
:1002B000989FF0011124EE59FF4F328321837483FC
:1002C0006383408316821582911104C066E070E05A
:1002D00080E061D1809177008F5F8093770081E02B
:1002E000089580E008951F93CF93DF93AC01809130
:1002F0007700E2E6F0E010E090E061E0EF012381BA
:1003000034812417350709F5923041F414821382A1
:100310001682158212821182108215C029893A89AB
:10032000348323832B893C89368325832F85388921
:10033000328321832E8520831A8A198A1C8A1B8A7C
:10034000188A1F861E868150162F9F5F379693301E
:10035000B1F680937700811101C084D281E0111140
:1003600001C080E0DF91CF911F910895CF92DF927D
:10037000EF92FF920F931F93CF93DF931F92CDB70E
:10038000DEB786E089838091810090918200A09100
:100390008300B0918400892B8A2B8B2B09F446C0F3
:1003A00010928100109282001092830010928400BB
:1003B000BE016F5F7F4F80E090D202E610E00F2E0B
:1003C000F7E7EF2EF0E0FF2EF02DF8018381948106
:1003D000892B29F0858196810196968385833796AE
:1003E000EE15FF0599F7D8011396ED91FC9114973E
:1003F0003097B9F015962D913C91169711968D91E5
:100400009C9112972817390760F016961C921E923D
:1004100015970995F8018081811103C0838194812A
:1004200062DF095F1F4F0E151F05E9F681E00F908F
:10043000DF91CF911F910F91FF90EF90DF90CF90C0
:10044000089561E080E0D8CE089562E080E0D4CEE7
:10045000089564E080E0D0CE089568E080E0CCCEDE
:100460000895CF93DF9300D01F92CDB7DEB7789475
:1004700019828FEF8A838B83CE0101960EDE80E690
:1004800090E0D8DE40E061E272E088EE93E00ADFBF
:1004900041E065E272E084EF91E004DF41E069E26F
:1004A00072E08CE291E0FEDE89E292E01CDF8DE2F8
:1004B00092E019DF811103C04FEF60E84FDE56DF95
:1004C000FECFFC01892B09F464C03081832F90E0BA
:1004D000DC01A558BF4F23812C932181213009F4E1
:1004E00046C020F0223009F448C04CC0313091F0B1
:1004F00018F0323031F135C083B7887F83BF8281F5
:10050000813021F489B7816089BF2BC089B78E7F84
:1005100089BF27C08FB58D7F8FBD8FB58E7F8FBD73
:100520008EB5877F8EBD8EB58F7E8EBD8281811107
:1005300004C089B78E7F89BF14C089B7816089BF25
:1005400010C085B5877F85BD85B58F7B85BD8281D0
:10055000811104C089B78E7F89BF03C089B78160CC
:1005600089BFA081B0E0A258BF4F1C920BC0DC0134
:10057000A258BF4F21E02C9305C0DC01A258BF4F09
:1005800022E02C93E081F0E0E858FF4F81E0808387
:10059000089580E00895813009F477C020F082301A
:1005A00009F4E2C04BC180917800813009F048C164
:1005B00062BF80917E00813009F451C020F082300A
:1005C00009F458C03FC180917B00843009F128F4C0
:1005D000813041F0823089F037C1863021F1873097
:1005E00069F132C183B78B7F83BF83B78D7F83BFB0
:1005F00083B7816083BF81E0089583B78B7F83BF1A
:1006000083B78E7F83BF83B7826083BF81E0089505
:1006100083B78B7F83BF83B7826083BF83B78160DB
:1006200083BF81E0089583B78E7F83BF83B78D7FBB
:1006300083BF83B7846083BF81E0089583B78160FF
:1006400083BF83B78D7F83BF83B7846083BF83B746
:100650008E7F83BF83B7826083BF81E0089583B7B5
:10066000846083BF83B7826083BF83B7816083BFA9
:1006700081E0089583B7846083BF83B78E7F83BF93
:1006800083B7816083BF81E00895809179008130D4
:1006900009F0DCC0609570957DBD6CBD80917F00D8
:1006A000813009F44BC020F0823009F452C0D0C030
:1006B00080917C00843009F128F4813041F082304F
:1006C00089F0C8C0863021F1873069F1C3C08EB58A
:1006D0008B7F8EBD8EB58D7F8EBD8EB581608EBDBC
:1006E00081E008958EB58B7F8EBD8EB58E7F8EBDD9
:1006F0008EB582608EBD81E008958EB58B7F8EBDF4
:100700008EB581608EBD8EB582608EBD81E008950C
:100710008EB58D7F8EBD8EB58E7F8EBD8EB584607D
:100720008EBD81E008958EB58D7F8EBD8EB58160C2
:100730008EBD8EB584608EBD81E008958EB58260D9
:100740008EBD8EB581608EBD8EB584608EBD81E01C
:1007500008958EB582608EBD8EB584608EBD8EB5D7
:100760008E7F8EBD81E0089580917A00813009F0FE
:1007700073C0609564BD80918000882329F0833028
:1007800008F46CC080E00895E0917D008E2F90E029
:10079000FC013197E730F10508F062C0E65DFF4FDC
:1007A000DAC085B5846085BD85B5826085BD85B5B7
:1007B000816085BD81E0089585B58E7F85BD85B555
:1007C0008B7F85BD85B5826085BD81E0089585B547
:1007D0008B7F85BD85B5816085BD85B5826085BD12
:1007E00081E0089585B5846085BD85B58E7F85BD22
:1007F00085B58D7F85BD81E0089585B5846085BD13
:1008000085B5816085BD85B58D7F85BD81E0089505
:1008100085B5846085BD85B5826085BD85B58E7FD3
:1008200085BD81E0089585B5846085BD85B582600C
:1008300085BD85B5816085BD81E0089580E008951E
:1008400080E0089580E0089580E0089580E00895B4
:1008500080E0089580E0089580E0089581E00895A3
:1008600080E00895813099F018F08230F9F02DC0C1
:1008700080917800813059F583B7846083BF83B756
:10088000826083BF83B7816083BF81E008958091D8
:1008900079008130F1F483B78B7F83BF83B78D7F7D
:1008A00083BF83B78E7F83BF81E0089580917A00F4
:1008B000813089F485B58E7F85BD85B58B7F85BDFB
:1008C00085B58D7F85BD81E0089580E0089580E045
:1008D000089580E0089580E00895813049F018F08F
:1008E000823069F011C0FB01808182BF81E00895F0
:1008F000FB01808190E09DBD8CBD81E00895FB01EE
:10090000808184BD81E0089580E008951F920F9258
:100910000FB60F9211248F939F93AF93BF93809143
:10092000810090918200A0918300B0918400019693
:10093000A11DB11D8093810090938200A09383003C
:10094000B0938400BF91AF919F918F910F900FBE94
:100950000F901F901895EE0FFF1F0590F491E02D5A
:060960000994F894FFCF9A
:0209660001008E
:00000001FF
